:020000020000FC
:0200000017C027
:1000080000C02FB643954170413039F4022C1FBE11
:100018001F910F912F933F931895122C0FBE3F916C
:100028002F910F931F93189506E007BB0FEF01BBA5
:1000380002E0302E04E0402E0FE302BB09E00EBDC3
:1000480000E00BBD04E60ABD00E409BF00E310E0D0
:100058002BE330E04427789484EF91E0A0EDB7E0FB
:100068001197F1F70197D1F7532458BAF5CFC4E6A1
:10007800D0E0E0EDF7E03197F1F72197D1F754247C
:0400880058BAF5CF9E
:00000001FF
