:020000020000FC
:020000001DC021
:0200080007C02F
:100016000CC04F924FB61D2F0C2F169507956AD020
:10002600CC27DD274FBE4F9018954F924FB621969D
:100036004FBE4F9018950EEF07BB0FE701BB01E0CF
:1000460000BD00E20BBF00E00FBD0CE00EBD0AE7ED
:100056000BBD01E10ABD00EC09BF789402E008BBC4
:10006600042F2DD002BB22D004E008BB052F27D0D9
:1000760002BB1CD008E008BB062F21D002BB16D05D
:1000860000E108BB072F1BD002BB10D00000E6CF53
:100096009F938F930F931F93912F802F07D00197D4
:1000A600E9F71F910F918F919F9108959F938F93D9
:1000B60080ED97E00197F1F78F919F910895EF9367
:1000C600E0EDE00F0491EF9108953F065B4F666DFA
:1000D6007D077F6F8F939F938827992702171307B2
:1000E60020F0021B130B0196C9F7282F392F9F9179
:1000F6008F9108952F933F9328EE33E0EBDF422F45
:1001060024E630E0E7DF522F2AE030E0E3DF622F1B
:08011600702F3F912F91089515
:00000001FF
